:020000040800F2
:10000000800700209D010008670600085F060008C1
:1000100063060008FF040008EB0C00080000000065
:100020000000000000000000000000003709000888
:1000300003050008000000007D060008490A0008CA
:10004000B7010008B7010008B7010008B7010008B0
:10005000B7010008B7010008B7010008B7010008A0
:10006000B7010008B7010008B7010008B701000890
:10007000B7010008B7010008B7010008B701000880
:10008000B7010008B7010008B7010008B701000870
:10009000B7010008B7010008B7010008B701000860
:1000A000B7010008B7010008B7010008B701000850
:1000B000B7010008B7010008B7010008B701000840
:1000C000B7010008B7010008B7010008B701000830
:1000D000B7010008B7010008B7010008B701000820
:1000E000B7010008B7010008B7010008B701000810
:1000F00000F002F800F042F80AA090E8000C8244F8
:100100008344AAF10107DA4501D100F037F8AFF2D4
:10011000090EBAE80F0013F0010F18BFFB1A43F0E5
:1001200001031847480E0000680E0000103A24BF73
:1001300078C878C1FAD8520724BF30C830C144BF4C
:1001400004680C607047000000230024002500268E
:10015000103A28BF78C1FBD8520728BF30C148BF2A
:100160000B607047642900F0A380732900F04A8176
:10017000002070471FB51FBD10B510BD00F074F909
:100180001146FFF7F7FF00F0C5FD00F092F903B448
:10019000FFF7F2FF03BC00F099F90000094880471F
:1001A00009480047FEE7FEE7FEE7FEE7FEE7FEE759
:1001B000FEE7FEE7FEE7FEE704480549054A064B71
:1001C000704700004D0A0008F1000008800100207F
:1001D0008007002080030020800300200FB4044922
:1001E00010B503AA029800F011F910BC5DF814FBD9
:1001F000900000202DE9F0410E46044600202062C8
:100200002046E168884730B3252805D0D4E901218C
:100210009047206A401CF2E7E168204600278847A3
:10022000050018D0A5F14100192802D820354FF457
:1002300000673246294620462760FFF793FF40B10A
:10024000012804D0F61D26F007060836D8E7361D2B
:10025000D6E72846DAE7206ABDE8F08170B50C469B
:100260000546012A05D02878800600D5EA690023D2
:1002700002E0012305E05B1C934202D2E05C00280F
:10028000F9D1A869E618C01AA861286A184428623A
:100290002846AFF3008004E0D5E9012114F8010BF2
:1002A0009047B442F8D32846AFF3008070BD0000F9
:1002B0002DE9F0410646002410687529314616A53F
:1002C00010D0AFF30080002802DA404213A507E007
:1002D00031688A0701D512A502E0490704D511A5A6
:1002E000012401E0AFF3008000210A2206F1240777
:1002F00009E0B0FBF2FCB0FBF2F302FB1C00303073
:1003000078541846491C0028F3D123462A46304623
:10031000BDE8F04100F00BB8000000002D00000027
:100320002B000000200000007047704770472DE947
:10033000F0470D4699469246044600F124080168AC
:10034000880604D5E06921F01001216000E0012059
:10035000A84201DD471B00E00027A1697A1902EBE2
:100360000900081AA0612078C00602D42046AFF325
:100370000080002608E0D4E901211AF80600904721
:10038000206A401C761C20624E45F4DB2078C006B3
:100390000AD52046AFF3008006E0D4E901213020E1
:1003A0009047206A401C2062381EA7F10107F4DC48
:1003B00007E0D4E9012118F805009047206A401CA5
:1003C0002062281EA5F10105F3DC2046AFF3008072
:1003D0002078000602D50220BDE8F0870120FBE767
:1003E00010B5436913B1AFF3008001E0FFF736FFAA
:1003F000012010BD127800F124010A7000224A7019
:100400000122EDE711684FF0FF32E9E7074B70B5C5
:100410000D467B4400F011F80446284600F020F811
:1004200010B14FF0FF3070BD204670BDDB080000FA
:1004300001694A1C02610878704700B58FB0CDE9A8
:1004400001310021059105497944CDE90310114698
:100450006846FFF7CFFE0FB000BD0000E5FFFFFFCD
:10046000007B00F080007047754600F02BF8AE4628
:1004700005006946534620F00700854618B020B5B0
:10048000FFF79AFEBDE820404FF000064FF000074E
:100490004FF000084FF0000B21F00701AC46ACE82C
:1004A000C009ACE8C009ACE8C009ACE8C0098D4699
:1004B000704710B50446AFF300802046BDE81040F9
:1004C000FFF765BE00487047200100200149182051
:1004D000ABBEFEE726000200704710B5034607E0FA
:1004E00018780C78A04201D0002010BD5B1C491C7C
:1004F000101EA2F10104A2B2F2D10120F5E700BF63
:10050000FEE7704710B56FF0040000F089FA0A4862
:1005100000680A49B0FBF1F0094908700846007804
:1005200000EB4001C1EBC0104FF6FF7101EAC000C3
:100530000449088010BD00007C00002000127A00F1
:1005400094000020960000202DE9F041024600258D
:100550000026002000230024002791F803C00CF09F
:100560000F0591F803C00CF0100CBCF1000F03D084
:1005700091F802C04CEA050591F800C0BCF1000FEB
:1005800031D0146800202BE04FF0010C0CFA00F37E
:10059000B1F800C00CEA03069E4220D183004FF060
:1005A0000F0C0CFA03F7BC4305FA03FC4CEA0404F5
:1005B00091F803C0BCF1280F06D14FF0010C0CFAE2
:1005C00000FCC2F814C00AE091F803C0BCF1480F67
:1005D00005D14FF0010C0CFA00FCC2F810C0401C11
:1005E0000828D1D31460B1F800C0BCF1FF0F34DD8E
:1005F000546800202EE000F1080C4FF0010808FAC2
:100600000CF3B1F800C00CEA03069E4221D183002E
:100610004FF00F0C0CFA03F7BC4305FA03FC4CEA4D
:10062000040491F803C0BCF1280F05D100F1080CB7
:1006300008FA0CF8C2F8148091F803C0BCF1480F16
:1006400007D100F1080C4FF0010808FA0CF8C2F8C5
:100650001080401C0828CED35460BDE8F08100BF54
:10066000FEE700BFFEE7704702490143024A1160FE
:10067000704700000000FA050CED00E07047000034
:1006800029B1064A12690243044B1A6104E0034A85
:1006900012698243014B1A6170470000001002404A
:1006A00029B1064A92690243044B9A6104E0034A65
:1006B00092698243014B9A6170470000001002402A
:1006C00029B1064AD2680243044BDA6004E0034AC7
:1006D000D2688243014BDA6070470000001002408C
:1006E00030B50021002200240023324D6D6805F052
:1006F0000C0121B1042905D008292CD105E02E4D8B
:1007000005602BE02C4D056028E02A4D6D6805F44E
:100710007012284D6D6805F48034022505EB924275
:1007200064B9264D2D6805F010051DB1224D5543C5
:1007300005600FE0224D554305600BE01D4D6D68CF
:1007400005F400351DB11E4D5543056002E01A4DFC
:100750005543056002E0184D056000BF00BF154D10
:100760006D6805F0F0010909164D6B5C0568DD4008
:100770004560104D6D6805F4E061090A114D6B5C30
:100780004568DD4085600B4D6D6805F46051C90A10
:100790000C4D6B5C4568DD40C560064D6D6805F429
:1007A0004041890B084D6B5CC568B5FBF3F50561ED
:1007B00030BD00000010024000127A0000380240F4
:1007C00000093D0098000020A800002000B587B077
:1007D000012141F20400FFF763FF01A800F0A0F837
:1007E0001B4800F045F84020ADF8180003208DF8B4
:1007F0001A0018208DF81B0006A91648FFF7A4FE62
:10080000A020ADF8180004208DF81B0006A911489F
:10081000FFF79AFE0020ADF80400ADF80600ADF831
:1008200008000220ADF80A000120ADF80C004002DB
:10083000ADF80E008020ADF8120001A9044800F0C8
:1008400051F80121024800F007F807B000BD000090
:10085000003001400008014021B1028842F040020E
:10086000028004E002884FF6BF731A40028070478E
:1008700010B504461148844208D101218014FFF7C5
:100880001FFF0021A014FFF71BFF16E00C48844255
:1008900008D101210014FFF7F3FE00212014FFF717
:1008A000EFFE0AE00748844207D10121C013FFF799
:1008B000E7FE0021E013FFF7E3FE10BD003001402A
:1008C00000380040003C00400246002013890B40E5
:1008D0000BB1012000E00020704701468889704775
:1008E0008181704710B50022028802F441520B88C2
:1008F0004C8823438C882343CC8823430C8923438F
:100900004C8923438C892343CC8923431A43028097
:10091000838B4FF2FF74234083830B8A038210BDC5
:100920000021018041808180C18001818181C1815C
:10093000072101827047704710B500F001F810BD23
:100940000CB50020019000903348006840F48030DE
:100950003149086000BF3048006800F40030009062
:100960000198401C0190009818B90198B0F5A06F4B
:10097000F1D12948006800F4003010B10120009046
:1009800001E0002000900098012843D1234800682E
:1009900040F01000214908600846006820F003007C
:1009A00008600846006840F0020008601A48406885
:1009B000194948600846406848600846406840F465
:1009C000806048600846406820F47C104860084613
:1009D000406840F4E81048600846006840F08070C5
:1009E000086000BF0C48006800F000700028F9D0D3
:1009F0000948406820F003000749486008464068FD
:100A000040F00200486000BF0348406800F00C005E
:100A10000828F9D10CBD000000100240002002405F
:100A2000042808D14FF0E021096941F004014FF09A
:100A3000E022116107E04FF0E021096921F0040193
:100A40004FF0E022116170477047000010B5134865
:100A5000006840F0010011490860084640681049EC
:100A600008400E494860084600680E4908400B4996
:100A700008600846006820F4802008600846406846
:100A800020F4FE0048604FF41F008860FFF754FF19
:100A90004FF000600449086010BD000000100240E3
:100AA0000000FFF8FFFFF6FE08ED00E000B587B09C
:100AB000012144F20400FFF7F3FD4FF40070ADF89C
:100AC000180003208DF81A0018208DF81B0006A9C5
:100AD0001F48FFF739FD4FF48070ADF8180006A9E4
:100AE0001B48FFF731FD4FF48060ADF8180004207B
:100AF0008DF81B0006A91648FFF726FD4FF400608D
:100B0000ADF800004010ADF802004010ADF8040050
:100B10004010ADF8060069460E4800F01DF84FF48D
:100B2000E13002900020ADF80C00ADF80E00ADF8F9
:100B30001000ADF814000C20ADF8120002A9054811
:100B400000F030F80121034800F017F807B000BDAD
:100B5000000801400038014010B502460020108A0C
:100B60004FF2FF0318400B884C8823438C882343A3
:100B7000CC8823431843108210BD21B1828942F4EE
:100B80000052828104E082894DF6FF731A4082810F
:100B900070470246002013880B400BB1012000E093
:100BA000002070472DE9F04786B005460E46002428
:100BB000A24600BFA14600272F462C8A4CF6FF70A4
:100BC0000440F08804432C82AC894EF6F3100440B4
:100BD000B08831890843718908430443AC81AC8AE9
:100BE0004FF6FF400440B0890443AC8201A8FFF7F0
:100BF00077FD1F48874202D1DDF810A001E0DDF843
:100C00000CA0A88900F4004040B10AEBCA0000EB38
:100C10000A1031684900B0FBF1F807E00AEBCA009E
:100C200000EB0A1031688900B0FBF1F86420B8FBD2
:100C3000F0F004012009642101FB1089A88900F467
:100C4000004040B1322000EBC900B0FBF1F000F0F1
:100C50000700044308E0322000EB09106421B0FBD8
:100C6000F1F000F00F0004432C8106B0BDE8F087DE
:100C70000038014010B586B00446012144F204005A
:100C8000FFF70EFD4FF40070ADF8140003208DF84F
:100C9000160018208DF8170005A90D48FFF754FC21
:100CA00001940020ADF80800ADF80A00ADF80C0082
:100CB000ADF810000820ADF80E0001A90548FFF7B7
:100CC00071FF01210348FFF758FF06B010BD000077
:100CD000000801400038014001468888C0F3080040
:100CE0007047C1F308028280704700BFFEE7000032
:100CF00070B504460D4600BF40210548FFF749FF87
:100D00000028F9D0E1B20248FFF7EBFF204670BDA2
:100D1000003801404FF4A060FFF7A6FCFFF7F2FB9C
:100D20004FF4E130FFF7A6FF4F4801684FA0FFF7EF
:100D300055FA52A0FFF752FAFFF7B8FEFFF746FD4B
:100D400024E0564802780078401C544B18705448F0
:100D5000815C5448FFF7C5FF00BF80215148FFF771
:100D600018FF0028F9D000BF01214F48FFF7ACFD64
:100D70000028F9D04C48FFF7B0FDC2B24B480178CB
:100D80000078401C494B1870494842544348007849
:100D90003928D6D34348FFF79FFF30E000BF022138
:100DA0004148FFF791FD0028F9D0424802780078C9
:100DB000401C404B18704048815C3B48FFF790FD59
:100DC0003E4801783748FFF78CFF00BF8021354847
:100DD000FFF7DFFE0028F9D000BF20213148FFF7E0
:100DE000D8FE0028F9D02F48FFF776FFC1B234486B
:100DF00002780078401C324B1870324881542D48DC
:100E000000783928CAD3392229492548FFF765FBDC
:100E10002D49087039222B492748FFF75EFB2B49E3
:100E200008702948007830B10846007818B128A029
:100E3000FFF7D4F902E02BA0FFF7D0F92DA0FFF7C0
:100E4000CDF9174939A0FFF7C9F91E493BA0FFF7B3
:100E5000C5F919493DA0FFF7C1F915493FA0FFF7B2
:100E6000BDF900BFFEE700007C00002053797374D9
:100E7000656D436C6B3A25640D0A00005553415271
:100E8000542053796E6368726F6D6F75734D6F6424
:100E90006520544553540D0A0000000072000020E4
:100EA00000000020003801400030014075000020A3
:100EB000E5000020740000203900002076000020AA
:100EC00073000020AC000020770000207800002094
:100ED0000D0A53656E642053756363657373210D4A
:100EE0000A0000000D0A53656E64204661696C219A
:100EF0000D0A00005478427566666572312D2D2DFD
:100F00002D3E527842756666657232202020202080
:100F10005478427566666572322D2D2D2D3E5278BD
:100F2000427566666572310D0A000000547842759C
:100F300066666572313A25730D0A00005278427573
:100F400066666572313A25730D0A00005478427561
:100F500066666572323A25730D0A00005278427552
:100F600066666572323A25730D0A00008C0F000820
:100F700000000020AC0000002C0100083810000820
:100F8000AC000020D4060000480100082A42756623
:100F9000666572312053656E642066726F6D2055F0
:100FA000534152543120746F20535049312075738E
:100FB000696E672053796E6368726F6D6F75734DDC
:100FC0006F64652100234275666665723220536541
:100FD0006E642066726F6D205350493120746F200B
:100FE000555341525431207573696E672053796EA1
:100FF0006368726F6D6F75734D6F646521000000DB
:10100000000000000000000000A24A0400000000F0
:1010100000000000010203040607080900000000A8
:1010200000000000000000000102030401020304AC
:08103000060708090204060886
:04000005080000F1FE
:00000001FF
