:020000040800F2
:10000000700700209D010008670600085F060008D1
:1000100063060008FF0400087D0D000800000000D2
:100020000000000000000000000000001D080008A3
:100030000305000800000000ED0600083109000873
:10004000B7010008B7010008B7010008B7010008B0
:10005000B7010008B7010008B7010008B7010008A0
:10006000B7010008B7010008B7010008B701000890
:10007000B7010008B7010008B7010008B701000880
:10008000B7010008B7010008B7010008B701000870
:10009000B7010008B7010008B7010008B701000860
:1000A000B7010008B7010008B7010008B701000850
:1000B000B7010008B7010008B7010008B701000840
:1000C000B7010008B7010008B7010008B701000830
:1000D000B7010008B701000895090008E909000800
:1000E000B7010008B7010008B7010008B701000810
:1000F00000F002F800F042F80AA090E8000C8244F8
:100100008344AAF10107DA4501D100F037F8AFF2D4
:10011000090EBAE80F0013F0010F18BFFB1A43F0E5
:1001200001031847700E0000900E0000103A24BF23
:1001300078C878C1FAD8520724BF30C830C144BF4C
:1001400004680C607047000000230024002500268E
:10015000103A28BF78C1FBD8520728BF30C148BF2A
:100160000B607047642900F0A380732900F04A8176
:10017000002070471FB51FBD10B510BD00F074F909
:100180001146FFF7F7FF00F00DFE00F092F903B4FF
:10019000FFF7F2FF03BC00F099F90000094880471F
:1001A00009480047FEE7FEE7FEE7FEE7FEE7FEE759
:1001B000FEE7FEE7FEE7FEE704480549054A064B71
:1001C0007047000035090008F100000870010020A8
:1001D0007007002070030020700300200FB4044952
:1001E00010B503AA029800F011F910BC5DF814FBD9
:1001F000880000202DE9F0410E46044600202062D0
:100200002046E168884730B3252805D0D4E901218C
:100210009047206A401CF2E7E168204600278847A3
:10022000050018D0A5F14100192802D820354FF457
:1002300000673246294620462760FFF793FF40B10A
:10024000012804D0F61D26F007060836D8E7361D2B
:10025000D6E72846DAE7206ABDE8F08170B50C469B
:100260000546012A05D02878800600D5EA690023D2
:1002700002E0012305E05B1C934202D2E05C00280F
:10028000F9D1A869E618C01AA861286A184428623A
:100290002846AFF3008004E0D5E9012114F8010BF2
:1002A0009047B442F8D32846AFF3008070BD0000F9
:1002B0002DE9F0410646002410687529314616A53F
:1002C00010D0AFF30080002802DA404213A507E007
:1002D00031688A0701D512A502E0490704D511A5A6
:1002E000012401E0AFF3008000210A2206F1240777
:1002F00009E0B0FBF2FCB0FBF2F302FB1C00303073
:1003000078541846491C0028F3D123462A46304623
:10031000BDE8F04100F00BB8000000002D00000027
:100320002B000000200000007047704770472DE947
:10033000F0470D4699469246044600F124080168AC
:10034000880604D5E06921F01001216000E0012059
:10035000A84201DD471B00E00027A1697A1902EBE2
:100360000900081AA0612078C00602D42046AFF325
:100370000080002608E0D4E901211AF80600904721
:10038000206A401C761C20624E45F4DB2078C006B3
:100390000AD52046AFF3008006E0D4E901213020E1
:1003A0009047206A401C2062381EA7F10107F4DC48
:1003B00007E0D4E9012118F805009047206A401CA5
:1003C0002062281EA5F10105F3DC2046AFF3008072
:1003D0002078000602D50220BDE8F0870120FBE767
:1003E00010B5436913B1AFF3008001E0FFF736FFAA
:1003F000012010BD127800F124010A7000224A7019
:100400000122EDE711684FF0FF32E9E7074B70B5C5
:100410000D467B4400F011F80446284600F020F811
:1004200010B14FF0FF3070BD204670BD6B09000069
:1004300001694A1C02610878704700B58FB0CDE9A8
:1004400001310021059105497944CDE90310114698
:100450006846FFF7CFFE0FB000BD0000E5FFFFFFCD
:10046000007B00F080007047754600F02BF8AE4628
:1004700005006946534620F00700854618B020B5B0
:10048000FFF79AFEBDE820404FF000064FF000074E
:100490004FF000084FF0000B21F00701AC46ACE82C
:1004A000C009ACE8C009ACE8C009ACE8C0098D4699
:1004B000704710B50446AFF300802046BDE81040F9
:1004C000FFF765BE00487047100100200149182061
:1004D000ABBEFEE726000200704710B5034607E0FA
:1004E00018780C78A04201D0002010BD5B1C491C7C
:1004F000101EA2F10104A2B2F2D10120F5E700BF63
:10050000FEE7704710B56FF0040000F0FDF90A48EF
:1005100000680A49B0FBF1F0094908700846007804
:1005200000EB4001C1EBC0104FF6FF7101EAC000C3
:100530000449088010BD00007400002000127A00F9
:100540008C0000208E0000202DE9F041024600259D
:100550000026002000230024002791F803C00CF09F
:100560000F0591F803C00CF0100CBCF1000F03D084
:1005700091F802C04CEA050591F800C0BCF1000FEB
:1005800031D0146800202BE04FF0010C0CFA00F37E
:10059000B1F800C00CEA03069E4220D183004FF060
:1005A0000F0C0CFA03F7BC4305FA03FC4CEA0404F5
:1005B00091F803C0BCF1280F06D14FF0010C0CFAE2
:1005C00000FCC2F814C00AE091F803C0BCF1480F67
:1005D00005D14FF0010C0CFA00FCC2F810C0401C11
:1005E0000828D1D31460B1F800C0BCF1FF0F34DD8E
:1005F000546800202EE000F1080C4FF0010808FAC2
:100600000CF3B1F800C00CEA03069E4221D183002E
:100610004FF00F0C0CFA03F7BC4305FA03FC4CEA4D
:10062000040491F803C0BCF1280F05D100F1080CB7
:1006300008FA0CF8C2F8148091F803C0BCF1480F16
:1006400007D100F1080C4FF0010808FA0CF8C2F8C5
:100650001080401C0828CED35460BDE8F08100BF54
:10066000FEE700BFFEE7704770B5002100230F22B0
:10067000C47804B3154C246804F4E064C4F5E06461
:10068000210AC1F10403CA40447804FA03F18478D2
:100690001440214309010E4C0678A155047804F05A
:1006A0001F050124AC4005786D11AD0005F1E02572
:1006B000C5F8004109E0047804F01F050124AC40AE
:1006C000044D0678761145F8264070BD0CED00E02B
:1006D00000E400E080E100E002490143024A1160C9
:1006E000704700000000FA050CED00E070470000C4
:1006F00029B1064AD2690243044BDA6104E0034A95
:10070000D2698243014BDA61704700000010024059
:1007100029B1064A92690243044B9A6104E0034AF4
:1007200092698243014B9A617047000000100240B9
:1007300030B50021002200240023324D6D6805F001
:100740000C0121B1042905D008292CD105E02E4D3A
:1007500005602BE02C4D056028E02A4D6D6805F4FE
:100760007012284D6D6805F48034022505EB924225
:1007700064B9264D2D6805F010051DB1224D554375
:1007800005600FE0224D554305600BE01D4D6D687F
:1007900005F400351DB11E4D5543056002E01A4DAC
:1007A0005543056002E0184D056000BF00BF154DC0
:1007B0006D6805F0F0010909164D6B5C0568DD40B8
:1007C0004560104D6D6805F4E061090A114D6B5CE0
:1007D0004568DD4085600B4D6D6805F46051C90AC0
:1007E0000C4D6B5C4568DD40C560064D6D6805F4D9
:1007F0004041890B084D6B5CC568B5FBF3F505619D
:1008000030BD00000010024000127A0000380240A3
:1008100000093D0090000020A0000020704710B5A6
:1008200000F002F810BD00000CB50020019000900F
:100830003348006840F480303149086000BF3048D8
:10084000006800F4003000900198401C019000986E
:1008500018B90198B0F5A06FF1D12948006800F4EB
:10086000003010B10120009001E0002000900098BD
:10087000012843D12348006840F010002149086056
:100880000846006820F0030008600846006840F051
:10089000020008601A4840681949486008464068E4
:1008A00048600846406840F48060486008464068F8
:1008B00020F47C1048600846406840F4E810486026
:1008C0000846006840F08070086000BF0C4800686F
:1008D00000F000700028F9D00948406820F00300BB
:1008E000074948600846406840F00200486000BF81
:1008F0000348406800F00C000828F9D10CBD000046
:100900000010024000200240042808D14FF0E021EE
:10091000096941F004014FF0E022116107E04FF056
:10092000E021096921F004014FF0E02211617047D4
:100930007047000010B51348006840F001001149ED
:10094000086008464068104908400E49486008465B
:1009500000680E4908400B4908600846006820F40A
:10096000802008600846406820F4FE0048604FF48C
:100970001F008860FFF753FF4FF0006004490860D4
:1009800010BD0000001002400000FFF8FFFFF6FE5F
:1009900008ED00E010B540F225510F4800F063F873
:1009A000C0B10D4800F054F9C1B20C48027800788B
:1009B000401C0A4B18700A488154184600783528A4
:1009C00008D1002240F22551034800F072F80120BE
:1009D0000449087010BD0000004400406B00002076
:1009E000A40000206E00002010B540F225510F48F1
:1009F00000F039F8C0B10D4800F02AF9C1B20C4836
:100A000002780078401C0A4B18700A488154184636
:100A10000078352808D1002240F22551034800F023
:100A200048F801200449087010BD0000004800404B
:100A30006D000020D90000206F00002021B18289C4
:100A400042F40052828104E082894DF6FF731A401D
:100A5000828170470246002013880B400BB10120B1
:100A600000E00020704770B502460B4600240021CC
:100A700000250020C3F3421503F01F01012606FAEA
:100A800001F1012D02D19689314006E0022D02D1FB
:100A9000168A314001E0968A31401C12012606FA7E
:100AA00004F41688344011B10CB1012000E000209C
:100AB00070BDF0B50346002400260025002018462E
:100AC000C1F3421401F01F06012707FA06F5012CB5
:100AD00001D10C3004E0022C01D1103000E01430C0
:100AE0001AB107682F43076002E00768AF43076049
:100AF000F0BD00002DE9F04786B005460E46002403
:100B0000A24600BFA14600272F462C8A4CF6FF7054
:100B10000440F08804432C82AC894EF6F310044064
:100B2000B08831890843718908430443AC81AC8A99
:100B30004FF6FF400440B0890443AC8201A8FFF7A0
:100B4000F7FD1F48874202D1DDF810A001E0DDF873
:100B50000CA0A88900F4004040B10AEBCA0000EBE9
:100B60000A1031684900B0FBF1F807E00AEBCA004F
:100B700000EB0A1031688900B0FBF1F86420B8FB83
:100B8000F0F004012009642101FB1089A88900F418
:100B9000004040B1322000EBC900B0FBF1F000F0A2
:100BA0000700044308E0322000EB09106421B0FB89
:100BB000F1F000F00F0004432C8106B0BDE8F0878F
:100BC0000038014010B586B00446012144F204000B
:100BD000FFF79EFD4FF40070ADF8140003208DF870
:100BE000160018208DF8170005A91748FFF7ACFC70
:100BF00001940020ADF80800ADF80A00ADF80C0033
:100C0000ADF810000C20ADF80E0001A90F48FFF759
:100C100071FF01210D48FFF711FF25208DF800001D
:100C200003208DF801008DF8020001208DF80300EB
:100C30006846FFF719FD012240F225510348FFF7EE
:100C400038FF06B010BD0000000801400038014028
:100C500001468888C0F308007047C1F3080282800B
:100C60007047000000B587B001214FF4C020FFF7A6
:100C70003FFD01210C20FFF74BFD0420ADF81800CB
:100C800003208DF81A0018208DF81B0006A937489C
:100C9000FFF75AFC0820ADF8180004208DF81B005F
:100CA00006A93248FFF750FC4FF48060ADF81800F9
:100CB00003208DF81A0018208DF81B0006A92C4877
:100CC000FFF742FC4FF40060ADF8180004208DF8E7
:100CD0001B0006A92648FFF737FC4FF4E1300290CD
:100CE0000020ADF80C00ADF80E00ADF81000ADF826
:100CF00014000C20ADF8120002A91E48FFF7FAFEFE
:100D0000012240F225511B48FFF7D3FE02A91A48E1
:100D1000FFF7F0FE012240F225511748FFF7C9FE08
:100D200026208DF8040001208DF805008DF80600BE
:100D30008DF8070001A8FFF797FC27208DF8040025
:100D400002208DF805008DF8060001208DF80700BF
:100D500001A8FFF789FC01210648FFF76FFE01217A
:100D60000548FFF76BFE07B000BD0000000801401A
:100D7000000C0140004400400048004000BFFEE776
:100D800070B504460D4600BF40210548FFF762FEDE
:100D90000028F9D0E1B20248FFF75FFF204670BD9E
:100DA000003801404FF4A060FFF796FCFFF7AAFB64
:100DB0004FF4E130FFF706FF3848016838A0FFF72D
:100DC0000DFA3BA0FFF70AFAFFF74CFF11E03E488F
:100DD00002780078401C3C4B18703C48815C3C48D1
:100DE000FFF73BFF00BF80213948FFF733FE0028A3
:100DF000F9D0354800783528E9D311E03548027834
:100E00000078401C334B18703348815C3348FFF73F
:100E100024FF00BF80213148FFF71CFE0028F9D0D5
:100E20002C4800783528E9D300BF2D4800780028E9
:100E3000FBD02C4800780028F7D035222A492648D4
:100E4000FFF74BFB29490870352229491F48FFF756
:100E500044FB284908702548007830B108460078DE
:100E600018B125A0FFF7BAF902E028A0FFF7B6F9FC
:100E70002AA0FFF7B3F9184936A0FFF7AFF91C49CC
:100E800038A0FFF7ABF911493AA0FFF7A7F91649C7
:100E90003CA0FFF7A3F900BFFEE7000074000020AC
:100EA00053797374656D436C6B3A25640D0A0000C9
:100EB000555341525420496E746572727570742096
:100EC000544553540D0A00006C00002035000020EA
:100ED000004800406A00002000000020004400405C
:100EE0006E0000206F000020D9000020700000205C
:100EF000A4000020710000200D0A53656E64205389
:100F0000756363657373210D0A0000000D0A536554
:100F10006E64204661696C210D0A000054784275A8
:100F200066666572312D2D2D2D3E527842756666AE
:100F300065723220202020205478427566666572E2
:100F4000322D2D2D2D3E5278427566666572310D1B
:100F50000A0000005478427566666572313A25735E
:100F60000D0A00005278427566666572313A257343
:100F70000D0A00005478427566666572323A257330
:100F80000D0A00005278427566666572323A257322
:100F90000D0A0000B40F000800000020A4000000AB
:100FA0002C01000858100008A4000020CC06000006
:100FB000480100082A427566666572312053656EE5
:100FC000642066726F6D2055534152543220746F05
:100FD00020555341525433207573696E6720496E12
:100FE000746572727570742100234275666665724D
:100FF000322053656E642066726F6D2055534152E6
:10100000543320746F205553415254322075736904
:101010006E6720496E7465727275707421000000ED
:10102000000000000000000000A24A0400000000D0
:101030000000000001020304060708090000000088
:10104000000000000000000001020304010203048C
:08105000060708090204060866
:04000005080000F1FE
:00000001FF
